S015000050574D5F4558414D504C4532312E737265634D
S1130000FAC000000CC100000AC1000008C10000D1
S113001006C1000004C1000002C1000000C10000CC
S1130020FEC00000FCC00000FAC00000F8C00000E0
S1130030F6C00000F4C0000044C100006FC100001D
S11300409AC10000C5C10000F0C100001BC200003D
S113005046C2000071C200009CC20000C7C200007A
S1130060DEC00000DCC00000DAC00000D8C0000020
S1130070D6C00000D4C00000D2C00000D0C0000030
S1130080CEC00000CCC00000CAC00000C8C0000040
S1130090C6C00000C4C00000C2C00000C0C0000050
S11300A0BEC00000BCC00000BAC00000B8C0000060
S11300B0B6C00000B4C00000B2C0000086C4000096
S11300C0B1C40000DCC4000007C5000032C5000054
S11300D05DC5000088C50000B3C50000DEC5000092
S11300E009C600009CC000009AC0000098C000002F
S11300F096C0000094C0000092C0000090C00000B0
S11301008EC000008CC000008AC0000088C00000BF
S113011086C0000084C0000082C0000080C00000CF
S11301207EC000007CC000007AC0000078C00000DF
S113013076C0000088C20000B3C20000DEC2000026
S113014009C3000034C300005FC300008AC3000079
S1130150B5C30000E0C300000BC4000060C0000091
S11301605EC000005CC000005AC0000058C000001F
S113017056C0000054C0000052C0000050C000002F
S11301804EC000004CC000004AC0000048C000003F
S113019046C0000044C0000042C0000040C000004F
S11301A03EC000003CC000003AC0000038C000005F
S11301B0CEC50000F9C5000024C600004FC60000EB
S11301C07AC60000A5C600002AC0000028C00000AE
S11301D026C0000024C0000022C0000020C000008F
S11301E01EC000001CC00000CD08E008F30806098A
S11301F019092C093F0911241FBECFEFCDBFDFE33E
S1130200DEBF00E00CBF20E2A0E0B0E201C01D921E
S1130210A835B207E1F70E94870A0C94FB0AF0CED6
S1130220CF93DF931F921F92CDB7DEB78FEF8093EA
S113023070008093710080937200809373008093A8
S1130240740080937500809376008FB78A83F89446
S11302509A81E0E5F0E08081826080839FBF8181A4
S113026081FFFDCF61E080E490E025D08FB78983E2
S1130270F8949981E0E5F0E080818E7F80839FBFD0
S11302800F900F90DF91CF910895CF93DF931F923A
S1130290CDB7DEB79FB79983F8949981E82FF0E042
S11302A0E059FF4F60958081682360839FBF0F9062
S11302B0DF91CF9108951BBEFC0128ED24BF60831C
S11302C008951F920F920FB60F9211240BB60F923E
S11302D02F933F934F935F936F937F938F939F934A
S11302E0AF93BF93EF93FF93E0914620F0914720A3
S11302F0309709F01995FF91EF91BF91AF919F91BC
S11303008F917F916F915F914F913F912F910F90BA
S11303100BBE0F900FBE0F901F9018951F920F9257
S11303200FB60F9211240BB60F922F933F934F9356
S11303305F936F937F938F939F93AF93BF93EF9349
S1130340FF93E0914420F0914520309709F01995EE
S1130350FF91EF91BF91AF919F918F917F916F9199
S11303605F914F913F912F910F900BBE0F900FBE55
S11303700F901F9018951F920F920FB60F92112491
S11303800BB60F922F933F934F935F936F937F938B
S11303908F939F93AF93BF93EF93FF93E09142208A
S11303A0F0914320309709F01995FF91EF91BF9197
S11303B0AF919F918F917F916F915F914F913F91F9
S11303C02F910F900BBE0F900FBE0F901F9018959A
S11303D01F920F920FB60F9211240BB60F922F9308
S11303E03F934F935F936F937F938F939F93AF93B9
S11303F0BF93EF93FF93E0914020F0914120309719
S113040009F01995FF91EF91BF91AF919F918F9151
S11304107F916F915F914F913F912F910F900BBE00
S11304200F900FBE0F901F9018951F920F920FB64A
S11304300F9211240BB60F922F933F934F935F9318
S11304406F937F938F939F93AF93BF93EF93FF9398
S1130450E0913E20F0913F20309709F01995FF91EB
S1130460EF91BF91AF919F918F917F916F915F9128
S11304704F913F912F910F900BBE0F900FBE0F9095
S11304801F9018951F920F920FB60F9211240BB65E
S11304900F922F933F934F935F936F937F938F9319
S11304A09F93AF93BF93EF93FF93E0913C20F09120
S11304B03D20309709F01995FF91EF91BF91AF91CD
S11304C09F918F917F916F915F914F913F912F9168
S11304D00F900BBE0F900FBE0F901F9018951F9298
S11304E00F920FB60F9211240BB60F922F933F93D6
S11304F04F935F936F937F938F939F93AF93BF9328
S1130500EF93FF93E0913A20F0913B20309709F06C
S11305101995FF91EF91BF91AF919F918F917F9129
S11305206F915F914F913F912F910F900BBE0F9060
S11305300FBE0F901F9018951F920F920FB60F9237
S113054011240BB60F922F933F934F935F936F93A6
S11305507F938F939F93AF93BF93EF93FF93E09118
S11305603820F0913920309709F01995FF91EF91D7
S1130570BF91AF919F918F917F916F915F914F91B7
S11305803F912F910F900BBE0F900FBE0F901F90B5
S113059018951F920F920FB60F9211240BB60F925B
S11305A02F933F934F935F936F937F938F939F9377
S11305B0AF93BF93EF93FF93E0913620F0913720F0
S11305C0309709F01995FF91EF91BF91AF919F91E9
S11305D08F917F916F915F914F913F912F910F90E8
S11305E00BBE0F900FBE0F901F9018951F920F9285
S11305F00FB60F9211240BB60F922F933F934F9384
S11306005F936F937F938F939F93AF93BF93EF9376
S1130610FF93E0913420F0913520309709F019953B
S1130620FF91EF91BF91AF919F918F917F916F91C6
S11306305F914F913F912F910F900BBE0F900FBE82
S11306400F901F9018951F920F920FB60F921124BE
S11306500BB60F922F933F934F935F936F937F93B8
S11306608F939F93AF93BF93EF93FF93E0913220C7
S1130670F0913320309709F01995FF91EF91BF91D4
S1130680AF919F918F917F916F915F914F913F9126
S11306902F910F900BBE0F900FBE0F901F901895C7
S11306A01F920F920FB60F9211240BB60F922F9335
S11306B03F934F935F936F937F938F939F93AF93E6
S11306C0BF93EF93FF93E0913020F0913120309766
S11306D009F01995FF91EF91BF91AF919F918F917F
S11306E07F916F915F914F913F912F910F900BBE2E
S11306F00F900FBE0F901F9018951F920F920FB678
S11307000F9211240BB60F922F933F934F935F9345
S11307106F937F938F939F93AF93BF93EF93FF93C5
S1130720E0912E20F0912F20309709F01995FF9138
S1130730EF91BF91AF919F918F917F916F915F9155
S11307404F913F912F910F900BBE0F900FBE0F90C2
S11307501F9018951F920F920FB60F9211240BB68B
S11307600F922F933F934F935F936F937F938F9346
S11307709F93AF93BF93EF93FF93E0912C20F0915D
S11307802D20309709F01995FF91EF91BF91AF910A
S11307909F918F917F916F915F914F913F912F9195
S11307A00F900BBE0F900FBE0F901F9018951F92C5
S11307B00F920FB60F9211240BB60F922F933F9303
S11307C04F935F936F937F938F939F93AF93BF9355
S11307D0EF93FF93E0912A20F0912B20309709F0BA
S11307E01995FF91EF91BF91AF919F918F917F9157
S11307F06F915F914F913F912F910F900BBE0F908E
S11308000FBE0F901F9018951F920F920FB60F9264
S113081011240BB60F922F933F934F935F936F93D3
S11308207F938F939F93AF93BF93EF93FF93E09145
S11308302820F0912920309709F01995FF91EF9124
S1130840BF91AF919F918F917F916F915F914F91E4
S11308503F912F910F900BBE0F900FBE0F901F90E2
S113086018951F920F920FB60F9211240BB60F9288
S11308702F933F934F935F936F937F938F939F93A4
S1130880AF93BF93EF93FF93E0912620F09127203D
S1130890309709F01995FF91EF91BF91AF919F9116
S11308A08F917F916F915F914F913F912F910F9015
S11308B00BBE0F900FBE0F901F9018951F920F92B2
S11308C00FB60F9211240BB60F922F933F934F93B1
S11308D05F936F937F938F939F93AF93BF93EF93A4
S11308E0FF93E0912420F0912520309709F0199589
S11308F0FF91EF91BF91AF919F918F917F916F91F4
S11309005F914F913F912F910F900BBE0F900FBEAF
S11309100F901F9018951F920F920FB60F921124EB
S11309200BB60F922F933F934F935F936F937F93E5
S11309308F939F93AF93BF93EF93FF93E091222004
S1130940F0912320309709F01995FF91EF91BF9111
S1130950AF919F918F917F916F915F914F913F9153
S11309602F910F900BBE0F900FBE0F901F901895F4
S11309701F920F920FB60F9211240BB60F922F9362
S11309803F934F935F936F937F938F939F93AF9313
S1130990BF93EF93FF93E0912020F09121203097B3
S11309A009F01995FF91EF91BF91AF919F918F91AC
S11309B07F916F915F914F913F912F910F900BBE5B
S11309C00F900FBE0F901F9018951F920F920FB6A5
S11309D00F9211240BB60F922F933F934F935F9373
S11309E06F937F938F939F93AF93BF93EF93FF93F3
S11309F0E0911E20F0911F20309709F01995FF9186
S1130A00EF91BF91AF919F918F917F916F915F9182
S1130A104F913F912F910F900BBE0F900FBE0F90EF
S1130A201F9018951F920F920FB60F9211240BB6B8
S1130A300F922F933F934F935F936F937F938F9373
S1130A409F93AF93BF93EF93FF93E0911C20F0919A
S1130A501D20309709F01995FF91EF91BF91AF9147
S1130A609F918F917F916F915F914F913F912F91C2
S1130A700F900BBE0F900FBE0F901F9018951F92F2
S1130A800F920FB60F9211240BB60F922F933F9330
S1130A904F935F936F937F938F939F93AF93BF9382
S1130AA0EF93FF93E0911A20F0911B20309709F007
S1130AB01995FF91EF91BF91AF919F918F917F9184
S1130AC06F915F914F913F912F910F900BBE0F90BB
S1130AD00FBE0F901F9018951F920F920FB60F9292
S1130AE011240BB60F922F933F934F935F936F9301
S1130AF07F938F939F93AF93BF93EF93FF93E09173
S1130B001820F0911920309709F01995FF91EF9171
S1130B10BF91AF919F918F917F916F915F914F9111
S1130B203F912F910F900BBE0F900FBE0F901F900F
S1130B3018951F920F920FB60F9211240BB60F92B5
S1130B402F933F934F935F936F937F938F939F93D1
S1130B50AF93BF93EF93FF93E0911620F09117208A
S1130B60309709F01995FF91EF91BF91AF919F9143
S1130B708F917F916F915F914F913F912F910F9042
S1130B800BBE0F900FBE0F901F9018951F920F92DF
S1130B900FB60F9211240BB60F922F933F934F93DE
S1130BA05F936F937F938F939F93AF93BF93EF93D1
S1130BB0FF93E0911420F0911520309709F01995D6
S1130BC0FF91EF91BF91AF919F918F917F916F9121
S1130BD05F914F913F912F910F900BBE0F900FBEDD
S1130BE00F901F9018951F920F920FB60F92112419
S1130BF00BB60F922F933F934F935F936F937F9313
S1130C008F939F93AF93BF93EF93FF93E091122041
S1130C10F0911320309709F01995FF91EF91BF914E
S1130C20AF919F918F917F916F915F914F913F9180
S1130C302F910F900BBE0F900FBE0F901F90189521
S1130C401F920F920FB60F9211240BB60F922F938F
S1130C503F934F935F936F937F938F939F93AF9340
S1130C60BF93EF93FF93E0911020F0911120309700
S1130C7009F01995FF91EF91BF91AF919F918F91D9
S1130C807F916F915F914F913F912F910F900BBE88
S1130C900F900FBE0F901F9018951F920F920FB6D2
S1130CA00F9211240BB60F922F933F934F935F93A0
S1130CB06F937F938F939F93AF93BF93EF93FF9320
S1130CC0E0910E20F0910F20309709F01995FF91D3
S1130CD0EF91BF91AF919F918F917F916F915F91B0
S1130CE04F913F912F910F900BBE0F900FBE0F901D
S1130CF01F9018951F920F920FB60F9211240BB6E6
S1130D000F922F933F934F935F936F937F938F93A0
S1130D109F93AF93BF93EF93FF93E0910C20F091D7
S1130D200D20309709F01995FF91EF91BF91AF9184
S1130D309F918F917F916F915F914F913F912F91EF
S1130D400F900BBE0F900FBE0F901F9018951F921F
S1130D500F920FB60F9211240BB60F922F933F935D
S1130D604F935F936F937F938F939F93AF93BF93AF
S1130D70EF93FF93E0910A20F0910B20309709F054
S1130D801995FF91EF91BF91AF919F918F917F91B1
S1130D906F915F914F913F912F910F900BBE0F90E8
S1130DA00FBE0F901F9018951F920F920FB60F92BF
S1130DB011240BB60F922F933F934F935F936F932E
S1130DC07F938F939F93AF93BF93EF93FF93E091A0
S1130DD00820F0910920309709F01995FF91EF91BF
S1130DE0BF91AF919F918F917F916F915F914F913F
S1130DF03F912F910F900BBE0F900FBE0F901F903D
S1130E0018951F920F920FB60F9211240BB60F92E2
S1130E102F933F934F935F936F937F938F939F93FE
S1130E20AF93BF93EF93FF93E0910620F0910720D7
S1130E30309709F01995FF91EF91BF91AF919F9170
S1130E408F917F916F915F914F913F912F910F906F
S1130E500BBE0F900FBE0F901F9018951F920F920C
S1130E600FB60F9211240BB60F922F933F934F930B
S1130E705F936F937F938F939F93AF93BF93EF93FE
S1130E80FF93E0910420F0910520309709F0199523
S1130E90FF91EF91BF91AF919F918F917F916F914E
S1130EA05F914F913F912F910F900BBE0F900FBE0A
S1130EB00F901F9018951F920F920FB60F92112446
S1130EC00BB60F922F933F934F935F936F937F9340
S1130ED08F939F93AF93BF93EF93FF93E09102207F
S1130EE0F0910320309709F01995FF91EF91BF918C
S1130EF0AF919F918F917F916F915F914F913F91AE
S1130F002F910F900BBE0F900FBE0F901F9018954E
S1130F101F920F920FB60F9211240BB60F922F93BC
S1130F203F934F935F936F937F938F939F93AF936D
S1130F30BF93EF93FF93E0910020F091012030974D
S1130F4009F01995FF91EF91BF91AF919F918F9106
S1130F507F916F915F914F913F912F910F900BBEB5
S1130F600F900FBE0F901F9018951F93CF93DF9390
S1130F701F92CDB7DEB72FB72983F8941981282F94
S1130F80392F211588E0380739F461E083E07DD9F1
S1130F9064E083E07AD943C0203488E0380739F428
S1130FA062E083E072D964E083E06FD938C0211530
S1130FB089E0380739F461E084E067D964E084E0CB
S1130FC064D92DC0203489E0380739F462E084E024
S1130FD05CD964E084E059D922C021158AE038073D
S1130FE039F461E085E051D964E085E04ED917C059
S1130FF020348AE0380739F462E085E046D964E0B9
S113100085E043D90CC021153B4039F461E086E00A
S11310103CD964E086E039D902C01FBF01C01FBFBC
S11310200F90DF91CF911F910895811528E09207C9
S113103029F460934620709347200895803428E073
S1131040920729F460933A2070933B200895811508
S113105029E0920729F46093322070933320089595
S1131060803429E0920729F4609326207093272086
S1131070089581152AE0920729F460931E20709345
S11310801F20089580342AE0920729F460931220E7
S113109070931320089581159B4021F460930A20D6
S11310A070930B200895CF92DF92EF92FF92CF932B
S11310B0DF93EC016B01E12CF12C60E078E488EE25
S11310C091E0A70196015ED2CA01B9012FEF3FEF6B
S11310D040E050E057D22115310529F481E08C839A
S11310E021E030E02DC02230310528F482E08C83E9
S11310F022E030E025C02430310528F483E08C83DD
S113110024E030E01DC02830310528F484E08C83CD
S113111028E030E015C02034310528F485E08C83C4
S113112020E430E00DC02F3F310509F028F486E0BB
S11311308C8320E031E004C087E08C8320E034E03D
S113114040E050E060E078E488EE91E01BD2CA0110
S1131150B901A701960116D22D833E8324363105A9
S113116018F41C821D821E82DF91CF91FF90EF90B4
S1131170DF90CF9008950F931F93CF93DF93EC01EB
S11311808901862F90E08730910508F08AC0FC0120
S11311908827EC50FF4F8F4F17C280E098E0888378
S11311A09983E0E4F6E0308181E090E02FEF240FB2
S11311B002C0880F991F2A95E2F7832B808371C0A0
S11311C080E498E088839983E0E4F6E0308181E06C
S11311D090E023E0240F02C0880F991F2A95E2F7BC
S11311E0832B80835EC080E099E088839983E0E666
S11311F0F6E0308181E090E02FEF240F02C0880FE9
S1131200991F2A95E2F7832B80834BC080E499E0F1
S113121088839983E0E6F6E0308181E090E023E082
S1131220240F02C0880F991F2A95E2F7832B80832D
S113123038C080E09AE088839983E0E8F6E0308162
S113124081E090E02FEF240F02C0880F991F2A95A8
S1131250E2F7832B808325C080E49AE08883998316
S1131260E0E8F6E0308181E090E023E0240F02C062
S1131270880F991F2A95E2F7832B808312C080E0A0
S11312809BE088839983E0EAF6E0308181E090E096
S11312902FEF240F02C0880F991F2A95E2F7832BA2
S11312A080834A83423061F018F4413031F010C039
S11312B0433049F0443051F00BC080E18B8308C0C7
S11312C080E28B8305C080E48B8302C080E88B833B
S11312D0888199814ADEE881F9818181887F8360F0
S11312E081831D821E821C82E881F9818081807F36
S11312F08083B801CE01D7DEDF91CF911F910F918A
S11313000895CF93DF93EC012D813E812F5F3F4FF2
S1131310A62FB0E061D124E630E040E050E032D1C5
S11313208A81E881F981E6FD17C0823061F018F402
S1131330813031F01BC0833049F0843051F016C045
S113134020AF31AF13C022AF33AF10C024AF35AFDD
S11313500DC026AF37AF0AC0813019F0823021F0BA
S113136005C020AF31AF02C022AF33AF8D819E8163
S1131370E881F98186A397A38B81E881F981E6FD51
S113138004C09181892B818304C091818073892B4E
S11313908183E881F9818081807F9C81892B80838E
S11313A0DF91CF910895CF93DF938091492091E00D
S11313B0980F909349208436C0F110924920A0914F
S11313C04920C1E5D0E22D813E812F5F3F4FB0E03F
S11313D003D124E630E040E050E0D4D08A81E881B3
S11313E0F981E6FD17C0823061F018F4813031F0E4
S11313F031C0833049F0843051F02CC020AF31AF7C
S113140029C022AF33AF26C024AF35AF23C026AFE7
S113141037AF20C0813019F0823021F01BC020AFDB
S113142031AF18C022AF33AF15C0A0914920C1E538
S1131430D0E22D813E812F5F3F4FB0E0CDD024E636
S113144030E040E050E09ED08A81E881F981E6FFF7
S1131450CACFE0CFDF91CF910895CF93DF938091EE
S1131460482091E0980F909348208436C0F1109260
S11314704820A0914820CAE4D0E22D813E812F5F0C
S11314803F4FB0E0A9D024E630E040E050E07AD00D
S11314908A81E881F981E6FD17C0823061F018F491
S11314A0813031F031C0833049F0843051F02CC0A8
S11314B020AF31AF29C022AF33AF26C024AF35AF40
S11314C023C026AF37AF20C0813019F0823021F01D
S11314D01BC020AF31AF18C022AF33AF15C0A091ED
S11314E04820CAE4D0E22D813E812F5F3F4FB0E017
S11314F073D024E630E040E050E044D08A81E881B3
S1131500F981E6FFCACFE0CFDF91CF91089587E05C
S11315108093A2000E94100178942BE430E041E013
S113152064E081E590E227DEE0915120F0915220C1
S113153086818C7F868386818160868363ED79E0F2
S1131540CF0173DD2AEF30E041E065E08AE490E208
S113155012DEE0914A20F0914B2086818C7F8683B5
S11315608681816086836DE27AE0CF015EDD6091E1
S1131570492081E590E2C5DE609148208AE490E24A
S1131580C0DEFFCFA1E21A2EAA1BBB1BFD010DC0BA
S1131590AA1FBB1FEE1FFF1FA217B307E407F5071F
S11315A020F0A21BB30BE40BF50B661F771F881FFB
S11315B0991F1A9469F760957095809590959B0191
S11315C0AC01BD01CF010895EE0FFF1F881F8BBF33
S11315D00790F691E02D1994A29FB001B39FC0012A
S11315E0A39F700D811D1124911DB29F700D811D4B
S10D15F01124911D0895F894FFCF13
S9030000FC
